{
  "contractName": "Profile",
  "abi": [
    {
      "inputs": [
        {
          "internalType": "address",
          "name": "",
          "type": "address"
        }
      ],
      "name": "profiles",
      "outputs": [
        {
          "internalType": "address",
          "name": "userAddress",
          "type": "address"
        },
        {
          "internalType": "string",
          "name": "displayName",
          "type": "string"
        },
        {
          "internalType": "string",
          "name": "bio",
          "type": "string"
        }
      ],
      "stateMutability": "view",
      "type": "function",
      "constant": true
    },
    {
      "inputs": [
        {
          "internalType": "string",
          "name": "_displayName",
          "type": "string"
        },
        {
          "internalType": "string",
          "name": "_bio",
          "type": "string"
        }
      ],
      "name": "setProfile",
      "outputs": [],
      "stateMutability": "nonpayable",
      "type": "function"
    },
    {
      "inputs": [
        {
          "internalType": "address",
          "name": "_user",
          "type": "address"
        }
      ],
      "name": "getProfile",
      "outputs": [
        {
          "components": [
            {
              "internalType": "address",
              "name": "userAddress",
              "type": "address"
            },
            {
              "internalType": "string",
              "name": "displayName",
              "type": "string"
            },
            {
              "internalType": "string",
              "name": "bio",
              "type": "string"
            }
          ],
          "internalType": "struct Profile.UserProfile",
          "name": "",
          "type": "tuple"
        }
      ],
      "stateMutability": "view",
      "type": "function",
      "constant": true
    },
    {
      "inputs": [
        {
          "internalType": "string",
          "name": "_newBio",
          "type": "string"
        }
      ],
      "name": "changeBio",
      "outputs": [],
      "stateMutability": "nonpayable",
      "type": "function"
    }
  ],
  "bytecode": "0x608060405234801561001057600080fd5b50610e53806100206000396000f3fe608060405234801561001057600080fd5b506004361061004c5760003560e01c80630f53a47014610051578063719e37ae14610081578063bbe156271461009d578063f9bd0690146100cf575b600080fd5b61006b600480360381019061006691906106ca565b6100eb565b60405161007891906107ed565b60405180910390f35b61009b60048036038101906100969190610944565b6102bd565b005b6100b760048036038101906100b291906106ca565b610475565b6040516100c693929190610a15565b60405180910390f35b6100e960048036038101906100e49190610a5a565b6105cf565b005b6100f3610621565b6000808373ffffffffffffffffffffffffffffffffffffffff1673ffffffffffffffffffffffffffffffffffffffff1681526020019081526020016000206040518060600160405290816000820160009054906101000a900473ffffffffffffffffffffffffffffffffffffffff1673ffffffffffffffffffffffffffffffffffffffff1673ffffffffffffffffffffffffffffffffffffffff1681526020016001820180546101a290610ad2565b80601f01602080910402602001604051908101604052809291908181526020018280546101ce90610ad2565b801561021b5780601f106101f05761010080835404028352916020019161021b565b820191906000526020600020905b8154815290600101906020018083116101fe57829003601f168201915b5050505050815260200160028201805461023490610ad2565b80601f016020809104026020016040519081016040528092919081815260200182805461026090610ad2565b80156102ad5780601f10610282576101008083540402835291602001916102ad565b820191906000526020600020905b81548152906001019060200180831161029057829003601f168201915b5050505050815250509050919050565b6000803373ffffffffffffffffffffffffffffffffffffffff1673ffffffffffffffffffffffffffffffffffffffff16815260200190815260200160002060000160009054906101000a900473ffffffffffffffffffffffffffffffffffffffff1673ffffffffffffffffffffffffffffffffffffffff163373ffffffffffffffffffffffffffffffffffffffff160361038c576040517f08c379a000000000000000000000000000000000000000000000000000000000815260040161038390610b75565b60405180910390fd5b60405180606001604052803373ffffffffffffffffffffffffffffffffffffffff168152602001838152602001828152506000803373ffffffffffffffffffffffffffffffffffffffff1673ffffffffffffffffffffffffffffffffffffffff16815260200190815260200160002060008201518160000160006101000a81548173ffffffffffffffffffffffffffffffffffffffff021916908373ffffffffffffffffffffffffffffffffffffffff16021790555060208201518160010190816104579190610d4b565b50604082015181600201908161046d9190610d4b565b509050505050565b60006020528060005260406000206000915090508060000160009054906101000a900473ffffffffffffffffffffffffffffffffffffffff16908060010180546104be90610ad2565b80601f01602080910402602001604051908101604052809291908181526020018280546104ea90610ad2565b80156105375780601f1061050c57610100808354040283529160200191610537565b820191906000526020600020905b81548152906001019060200180831161051a57829003601f168201915b50505050509080600201805461054c90610ad2565b80601f016020809104026020016040519081016040528092919081815260200182805461057890610ad2565b80156105c55780601f1061059a576101008083540402835291602001916105c5565b820191906000526020600020905b8154815290600101906020018083116105a857829003601f168201915b5050505050905083565b806000803373ffffffffffffffffffffffffffffffffffffffff1673ffffffffffffffffffffffffffffffffffffffff168152602001908152602001600020600201908161061d9190610d4b565b5050565b6040518060600160405280600073ffffffffffffffffffffffffffffffffffffffff16815260200160608152602001606081525090565b6000604051905090565b600080fd5b600080fd5b600073ffffffffffffffffffffffffffffffffffffffff82169050919050565b60006106978261066c565b9050919050565b6106a78161068c565b81146106b257600080fd5b50565b6000813590506106c48161069e565b92915050565b6000602082840312156106e0576106df610662565b5b60006106ee848285016106b5565b91505092915050565b6107008161068c565b82525050565b600081519050919050565b600082825260208201905092915050565b60005b83811015610740578082015181840152602081019050610725565b60008484015250505050565b6000601f19601f8301169050919050565b600061076882610706565b6107728185610711565b9350610782818560208601610722565b61078b8161074c565b840191505092915050565b60006060830160008301516107ae60008601826106f7565b50602083015184820360208601526107c6828261075d565b915050604083015184820360408601526107e0828261075d565b9150508091505092915050565b600060208201905081810360008301526108078184610796565b905092915050565b600080fd5b600080fd5b7f4e487b7100000000000000000000000000000000000000000000000000000000600052604160045260246000fd5b6108518261074c565b810181811067ffffffffffffffff821117156108705761086f610819565b5b80604052505050565b6000610883610658565b905061088f8282610848565b919050565b600067ffffffffffffffff8211156108af576108ae610819565b5b6108b88261074c565b9050602081019050919050565b82818337600083830152505050565b60006108e76108e284610894565b610879565b90508281526020810184848401111561090357610902610814565b5b61090e8482856108c5565b509392505050565b600082601f83011261092b5761092a61080f565b5b813561093b8482602086016108d4565b91505092915050565b6000806040838503121561095b5761095a610662565b5b600083013567ffffffffffffffff81111561097957610978610667565b5b61098585828601610916565b925050602083013567ffffffffffffffff8111156109a6576109a5610667565b5b6109b285828601610916565b9150509250929050565b6109c58161068c565b82525050565b600082825260208201905092915050565b60006109e782610706565b6109f181856109cb565b9350610a01818560208601610722565b610a0a8161074c565b840191505092915050565b6000606082019050610a2a60008301866109bc565b8181036020830152610a3c81856109dc565b90508181036040830152610a5081846109dc565b9050949350505050565b600060208284031215610a7057610a6f610662565b5b600082013567ffffffffffffffff811115610a8e57610a8d610667565b5b610a9a84828501610916565b91505092915050565b7f4e487b7100000000000000000000000000000000000000000000000000000000600052602260045260246000fd5b60006002820490506001821680610aea57607f821691505b602082108103610afd57610afc610aa3565b5b50919050565b7f546865726520616c72656164792065786973742061207573657220776974682060008201527f74686973206163636f756e740000000000000000000000000000000000000000602082015250565b6000610b5f602c836109cb565b9150610b6a82610b03565b604082019050919050565b60006020820190508181036000830152610b8e81610b52565b9050919050565b60008190508160005260206000209050919050565b60006020601f8301049050919050565b600082821b905092915050565b600060088302610bf77fffffffffffffffffffffffffffffffffffffffffffffffffffffffffffffffff82610bba565b610c018683610bba565b95508019841693508086168417925050509392505050565b6000819050919050565b6000819050919050565b6000610c48610c43610c3e84610c19565b610c23565b610c19565b9050919050565b6000819050919050565b610c6283610c2d565b610c76610c6e82610c4f565b848454610bc7565b825550505050565b600090565b610c8b610c7e565b610c96818484610c59565b505050565b5b81811015610cba57610caf600082610c83565b600181019050610c9c565b5050565b601f821115610cff57610cd081610b95565b610cd984610baa565b81016020851015610ce8578190505b610cfc610cf485610baa565b830182610c9b565b50505b505050565b600082821c905092915050565b6000610d2260001984600802610d04565b1980831691505092915050565b6000610d3b8383610d11565b9150826002028217905092915050565b610d5482610706565b67ffffffffffffffff811115610d6d57610d6c610819565b5b610d778254610ad2565b610d82828285610cbe565b600060209050601f831160018114610db55760008415610da3578287015190505b610dad8582610d2f565b865550610e15565b601f198416610dc386610b95565b60005b82811015610deb57848901518255600182019150602085019450602081019050610dc6565b86831015610e085784890151610e04601f891682610d11565b8355505b6001600288020188555050505b50505050505056fea2646970667358221220dc730feee40c2d33a5de31cf52459ee66dfe6411a89e43e411323c56fdb7756164736f6c63430008130033",
  "immutableReferences": {},
  "source": "// SPDX-License-Identifier: MIT\r\n\r\npragma solidity ^0.8.19;\r\n\r\ncontract Profile {\r\n    struct UserProfile {\r\n        address userAddress;\r\n        string displayName;\r\n        string bio;\r\n    }\r\n    \r\n    mapping(address => UserProfile) public profiles;\r\n\r\n    function setProfile(string memory _displayName, string memory _bio) public {\r\n        require(msg.sender!=profiles[msg.sender].userAddress,\"There already exist a user with this account\");\r\n    profiles[msg.sender]=UserProfile(msg.sender,_displayName,_bio);\r\n    }\r\n\r\n    function getProfile(address _user) public view returns (UserProfile memory) {\r\n        return profiles[_user];\r\n    }\r\n    function changeBio(string memory _newBio) external{\r\n       profiles[msg.sender].bio=_newBio;\r\n    }\r\n\r\n}",
  "sourcePath": "D:\\Blockchain\\Truffle\\Twitter project\\contracts\\UserProfile.sol",
  "compiler": {
    "name": "solc",
    "version": "0.8.19+commit.7dd6d404.Emscripten.clang"
  },
  "schemaVersion": "3.4.16",
  "updatedAt": "2024-07-16T16:33:17.408Z",
  "networkType": "ethereum",
  "devdoc": {
    "kind": "dev",
    "methods": {},
    "version": 1
  },
  "userdoc": {
    "kind": "user",
    "methods": {},
    "version": 1
  }
}