{
  "contractName": "Twitter",
  "abi": [
    {
      "inputs": [
        {
          "internalType": "address",
          "name": "userContractKey",
          "type": "address"
        }
      ],
      "stateMutability": "nonpayable",
      "type": "constructor"
    },
    {
      "inputs": [
        {
          "internalType": "address",
          "name": "owner",
          "type": "address"
        }
      ],
      "name": "OwnableInvalidOwner",
      "type": "error"
    },
    {
      "inputs": [
        {
          "internalType": "address",
          "name": "account",
          "type": "address"
        }
      ],
      "name": "OwnableUnauthorizedAccount",
      "type": "error"
    },
    {
      "anonymous": false,
      "inputs": [
        {
          "indexed": true,
          "internalType": "address",
          "name": "previousOwner",
          "type": "address"
        },
        {
          "indexed": true,
          "internalType": "address",
          "name": "newOwner",
          "type": "address"
        }
      ],
      "name": "OwnershipTransferred",
      "type": "event"
    },
    {
      "anonymous": false,
      "inputs": [
        {
          "indexed": false,
          "internalType": "uint256",
          "name": "id",
          "type": "uint256"
        },
        {
          "indexed": false,
          "internalType": "address",
          "name": "author",
          "type": "address"
        },
        {
          "indexed": false,
          "internalType": "string",
          "name": "content",
          "type": "string"
        },
        {
          "indexed": false,
          "internalType": "uint256",
          "name": "timestamp",
          "type": "uint256"
        }
      ],
      "name": "TweetCreated",
      "type": "event"
    },
    {
      "anonymous": false,
      "inputs": [
        {
          "indexed": false,
          "internalType": "address",
          "name": "disliker",
          "type": "address"
        },
        {
          "indexed": false,
          "internalType": "address",
          "name": "author",
          "type": "address"
        },
        {
          "indexed": false,
          "internalType": "uint256",
          "name": "tweetId",
          "type": "uint256"
        },
        {
          "indexed": false,
          "internalType": "uint256",
          "name": "newDislikeCount",
          "type": "uint256"
        }
      ],
      "name": "TweetDisliked",
      "type": "event"
    },
    {
      "anonymous": false,
      "inputs": [
        {
          "indexed": false,
          "internalType": "address",
          "name": "liker",
          "type": "address"
        },
        {
          "indexed": false,
          "internalType": "address",
          "name": "author",
          "type": "address"
        },
        {
          "indexed": false,
          "internalType": "uint256",
          "name": "tweetId",
          "type": "uint256"
        },
        {
          "indexed": false,
          "internalType": "uint256",
          "name": "newLikeCount",
          "type": "uint256"
        }
      ],
      "name": "TweetLiked",
      "type": "event"
    },
    {
      "anonymous": false,
      "inputs": [
        {
          "indexed": false,
          "internalType": "address",
          "name": "notDisliker",
          "type": "address"
        },
        {
          "indexed": false,
          "internalType": "address",
          "name": "author",
          "type": "address"
        },
        {
          "indexed": false,
          "internalType": "uint256",
          "name": "tweetId",
          "type": "uint256"
        },
        {
          "indexed": false,
          "internalType": "uint256",
          "name": "newDislikeCount",
          "type": "uint256"
        }
      ],
      "name": "TweetNotDisliked",
      "type": "event"
    },
    {
      "anonymous": false,
      "inputs": [
        {
          "indexed": false,
          "internalType": "address",
          "name": "unliker",
          "type": "address"
        },
        {
          "indexed": false,
          "internalType": "address",
          "name": "author",
          "type": "address"
        },
        {
          "indexed": false,
          "internalType": "uint256",
          "name": "tweetId",
          "type": "uint256"
        },
        {
          "indexed": false,
          "internalType": "uint256",
          "name": "newLikeCount",
          "type": "uint256"
        }
      ],
      "name": "TweetUnliked",
      "type": "event"
    },
    {
      "inputs": [],
      "name": "MAX_TWEET_LENGTH",
      "outputs": [
        {
          "internalType": "uint256",
          "name": "",
          "type": "uint256"
        }
      ],
      "stateMutability": "view",
      "type": "function",
      "constant": true
    },
    {
      "inputs": [],
      "name": "owner",
      "outputs": [
        {
          "internalType": "address",
          "name": "",
          "type": "address"
        }
      ],
      "stateMutability": "view",
      "type": "function",
      "constant": true
    },
    {
      "inputs": [],
      "name": "renounceOwnership",
      "outputs": [],
      "stateMutability": "nonpayable",
      "type": "function"
    },
    {
      "inputs": [
        {
          "internalType": "address",
          "name": "newOwner",
          "type": "address"
        }
      ],
      "name": "transferOwnership",
      "outputs": [],
      "stateMutability": "nonpayable",
      "type": "function"
    },
    {
      "inputs": [
        {
          "internalType": "address",
          "name": "",
          "type": "address"
        },
        {
          "internalType": "uint256",
          "name": "",
          "type": "uint256"
        }
      ],
      "name": "usernameMapping",
      "outputs": [
        {
          "internalType": "uint256",
          "name": "id",
          "type": "uint256"
        },
        {
          "internalType": "address",
          "name": "author",
          "type": "address"
        },
        {
          "internalType": "string",
          "name": "content",
          "type": "string"
        },
        {
          "internalType": "uint256",
          "name": "timestamp",
          "type": "uint256"
        },
        {
          "internalType": "uint256",
          "name": "likes",
          "type": "uint256"
        },
        {
          "internalType": "uint256",
          "name": "dislikes",
          "type": "uint256"
        }
      ],
      "stateMutability": "view",
      "type": "function",
      "constant": true
    },
    {
      "inputs": [
        {
          "internalType": "uint16",
          "name": "newTweetLength",
          "type": "uint16"
        }
      ],
      "name": "changeTweetLength",
      "outputs": [],
      "stateMutability": "nonpayable",
      "type": "function"
    },
    {
      "inputs": [
        {
          "internalType": "string",
          "name": "_tweet",
          "type": "string"
        }
      ],
      "name": "createTweet",
      "outputs": [],
      "stateMutability": "nonpayable",
      "type": "function"
    },
    {
      "inputs": [
        {
          "internalType": "address",
          "name": "_user",
          "type": "address"
        },
        {
          "internalType": "uint256",
          "name": "i",
          "type": "uint256"
        }
      ],
      "name": "getTweet",
      "outputs": [
        {
          "components": [
            {
              "internalType": "uint256",
              "name": "id",
              "type": "uint256"
            },
            {
              "internalType": "address",
              "name": "author",
              "type": "address"
            },
            {
              "internalType": "string",
              "name": "content",
              "type": "string"
            },
            {
              "internalType": "uint256",
              "name": "timestamp",
              "type": "uint256"
            },
            {
              "internalType": "uint256",
              "name": "likes",
              "type": "uint256"
            },
            {
              "internalType": "uint256",
              "name": "dislikes",
              "type": "uint256"
            }
          ],
          "internalType": "struct Twitter.Tweet",
          "name": "",
          "type": "tuple"
        }
      ],
      "stateMutability": "view",
      "type": "function",
      "constant": true
    },
    {
      "inputs": [
        {
          "internalType": "address",
          "name": "_user",
          "type": "address"
        }
      ],
      "name": "getAllTweets",
      "outputs": [
        {
          "components": [
            {
              "internalType": "uint256",
              "name": "id",
              "type": "uint256"
            },
            {
              "internalType": "address",
              "name": "author",
              "type": "address"
            },
            {
              "internalType": "string",
              "name": "content",
              "type": "string"
            },
            {
              "internalType": "uint256",
              "name": "timestamp",
              "type": "uint256"
            },
            {
              "internalType": "uint256",
              "name": "likes",
              "type": "uint256"
            },
            {
              "internalType": "uint256",
              "name": "dislikes",
              "type": "uint256"
            }
          ],
          "internalType": "struct Twitter.Tweet[]",
          "name": "",
          "type": "tuple[]"
        }
      ],
      "stateMutability": "view",
      "type": "function",
      "constant": true
    },
    {
      "inputs": [
        {
          "internalType": "address",
          "name": "author",
          "type": "address"
        },
        {
          "internalType": "uint256",
          "name": "id",
          "type": "uint256"
        }
      ],
      "name": "likeTweet",
      "outputs": [],
      "stateMutability": "nonpayable",
      "type": "function"
    },
    {
      "inputs": [
        {
          "internalType": "address",
          "name": "author",
          "type": "address"
        },
        {
          "internalType": "uint256",
          "name": "id",
          "type": "uint256"
        }
      ],
      "name": "unlikeTweet",
      "outputs": [],
      "stateMutability": "nonpayable",
      "type": "function"
    },
    {
      "inputs": [
        {
          "internalType": "address",
          "name": "author",
          "type": "address"
        },
        {
          "internalType": "uint256",
          "name": "id",
          "type": "uint256"
        }
      ],
      "name": "dislikeTweet",
      "outputs": [],
      "stateMutability": "nonpayable",
      "type": "function"
    },
    {
      "inputs": [
        {
          "internalType": "address",
          "name": "author",
          "type": "address"
        },
        {
          "internalType": "uint256",
          "name": "id",
          "type": "uint256"
        }
      ],
      "name": "notDislikeTweet",
      "outputs": [],
      "stateMutability": "nonpayable",
      "type": "function"
    },
    {
      "inputs": [
        {
          "internalType": "address",
          "name": "_author",
          "type": "address"
        }
      ],
      "name": "getTotalLikes",
      "outputs": [
        {
          "internalType": "uint256",
          "name": "",
          "type": "uint256"
        }
      ],
      "stateMutability": "view",
      "type": "function",
      "constant": true
    },
    {
      "inputs": [
        {
          "internalType": "address",
          "name": "_author",
          "type": "address"
        }
      ],
      "name": "getTotalDislikes",
      "outputs": [
        {
          "internalType": "uint256",
          "name": "",
          "type": "uint256"
        }
      ],
      "stateMutability": "view",
      "type": "function",
      "constant": true
    }
  ],
  "bytecode": "0x608060405261012c6001553480156200001757600080fd5b5060405162003dcd38038062003dcd83398181016040528101906200003d91906200023b565b33600073ffffffffffffffffffffffffffffffffffffffff168173ffffffffffffffffffffffffffffffffffffffff1603620000b35760006040517f1e4fbdf7000000000000000000000000000000000000000000000000000000008152600401620000aa91906200027e565b60405180910390fd5b620000c4816200010d60201b60201c565b5080600260006101000a81548173ffffffffffffffffffffffffffffffffffffffff021916908373ffffffffffffffffffffffffffffffffffffffff160217905550506200029b565b60008060009054906101000a900473ffffffffffffffffffffffffffffffffffffffff169050816000806101000a81548173ffffffffffffffffffffffffffffffffffffffff021916908373ffffffffffffffffffffffffffffffffffffffff1602179055508173ffffffffffffffffffffffffffffffffffffffff168173ffffffffffffffffffffffffffffffffffffffff167f8be0079c531659141344cd1fd0a4f28419497f9722a3daafe3b4186f6b6457e060405160405180910390a35050565b600080fd5b600073ffffffffffffffffffffffffffffffffffffffff82169050919050565b60006200020382620001d6565b9050919050565b6200021581620001f6565b81146200022157600080fd5b50565b60008151905062000235816200020a565b92915050565b600060208284031215620002545762000253620001d1565b5b6000620002648482850162000224565b91505092915050565b6200027881620001f6565b82525050565b60006020820190506200029560008301846200026d565b92915050565b613b2280620002ab6000396000f3fe608060405234801561001057600080fd5b50600436106100f55760003560e01c8063715018a6116100975780639b2724d3116100665780639b2724d314610270578063ae775e951461028c578063b8c9c1be146102a8578063f2fde38b146102dd576100f5565b8063715018a6146101fc5780637c9cd2bc14610206578063820785cc146102225780638da5cb5b14610252576100f5565b806358bfa4ab116100d357806358bfa4ab1461017657806363378216146101925780636bf029cc146101ae5780636eb10797146101de576100f5565b8063112f54e3146100fa57806312e7ee1c1461012a5780633d9b569f1461015a575b600080fd5b610114600480360381019061010f9190612a56565b6102f9565b6040516101219190612bcd565b60405180910390f35b610144600480360381019061013f9190612bef565b610595565b6040516101519190612d67565b60405180910390f35b610174600480360381019061016f9190612a56565b610855565b005b610190600480360381019061018b9190612dc3565b610d33565b005b6101ac60048036038101906101a79190612a56565b610d49565b005b6101c860048036038101906101c39190612bef565b611392565b6040516101d59190612dff565b60405180910390f35b6101e6611585565b6040516101f39190612dff565b60405180910390f35b61020461158b565b005b610220600480360381019061021b9190612f4f565b61159f565b005b61023c60048036038101906102379190612bef565b611945565b6040516102499190612dff565b60405180910390f35b61025a611b38565b6040516102679190612fa7565b60405180910390f35b61028a60048036038101906102859190612a56565b611b61565b005b6102a660048036038101906102a19190612a56565b61203f565b005b6102c260048036038101906102bd9190612a56565b612688565b6040516102d49695949392919061300c565b60405180910390f35b6102f760048036038101906102f29190612bef565b612789565b005b610301612962565b600260009054906101000a900473ffffffffffffffffffffffffffffffffffffffff1673ffffffffffffffffffffffffffffffffffffffff16630f53a470336040518263ffffffff1660e01b815260040161035c9190612fa7565b600060405180830381865afa158015610379573d6000803e3d6000fd5b505050506040513d6000823e3d601f19601f820116820180604052508101906103a2919061319f565b6000015173ffffffffffffffffffffffffffffffffffffffff163373ffffffffffffffffffffffffffffffffffffffff1614610413576040517f08c379a000000000000000000000000000000000000000000000000000000000815260040161040a90613234565b60405180910390fd5b600360008473ffffffffffffffffffffffffffffffffffffffff1673ffffffffffffffffffffffffffffffffffffffff168152602001908152602001600020828154811061046457610463613254565b5b90600052602060002090600602016040518060c0016040529081600082015481526020016001820160009054906101000a900473ffffffffffffffffffffffffffffffffffffffff1673ffffffffffffffffffffffffffffffffffffffff1673ffffffffffffffffffffffffffffffffffffffff1681526020016002820180546104ed906132b2565b80601f0160208091040260200160405190810160405280929190818152602001828054610519906132b2565b80156105665780601f1061053b57610100808354040283529160200191610566565b820191906000526020600020905b81548152906001019060200180831161054957829003601f168201915b505050505081526020016003820154815260200160048201548152602001600582015481525050905092915050565b6060600260009054906101000a900473ffffffffffffffffffffffffffffffffffffffff1673ffffffffffffffffffffffffffffffffffffffff16630f53a470336040518263ffffffff1660e01b81526004016105f29190612fa7565b600060405180830381865afa15801561060f573d6000803e3d6000fd5b505050506040513d6000823e3d601f19601f82011682018060405250810190610638919061319f565b6000015173ffffffffffffffffffffffffffffffffffffffff163373ffffffffffffffffffffffffffffffffffffffff16146106a9576040517f08c379a00000000000000000000000000000000000000000000000000000000081526004016106a090613234565b60405180910390fd5b600360008373ffffffffffffffffffffffffffffffffffffffff1673ffffffffffffffffffffffffffffffffffffffff168152602001908152602001600020805480602002602001604051908101604052809291908181526020016000905b8282101561084a57838290600052602060002090600602016040518060c0016040529081600082015481526020016001820160009054906101000a900473ffffffffffffffffffffffffffffffffffffffff1673ffffffffffffffffffffffffffffffffffffffff1673ffffffffffffffffffffffffffffffffffffffff16815260200160028201805461079b906132b2565b80601f01602080910402602001604051908101604052809291908181526020018280546107c7906132b2565b80156108145780601f106107e957610100808354040283529160200191610814565b820191906000526020600020905b8154815290600101906020018083116107f757829003601f168201915b50505050508152602001600382015481526020016004820154815260200160058201548152505081526020019060010190610708565b505050509050919050565b600260009054906101000a900473ffffffffffffffffffffffffffffffffffffffff1673ffffffffffffffffffffffffffffffffffffffff16630f53a470336040518263ffffffff1660e01b81526004016108b09190612fa7565b600060405180830381865afa1580156108cd573d6000803e3d6000fd5b505050506040513d6000823e3d601f19601f820116820180604052508101906108f6919061319f565b6000015173ffffffffffffffffffffffffffffffffffffffff163373ffffffffffffffffffffffffffffffffffffffff1614610967576040517f08c379a000000000000000000000000000000000000000000000000000000000815260040161095e90613234565b60405180910390fd5b80600360008473ffffffffffffffffffffffffffffffffffffffff1673ffffffffffffffffffffffffffffffffffffffff16815260200190815260200160002082815481106109b9576109b8613254565b5b90600052602060002090600602016000015414610a0b576040517f08c379a0000000000000000000000000000000000000000000000000000000008152600401610a029061332f565b60405180910390fd5b60046000600360008573ffffffffffffffffffffffffffffffffffffffff1673ffffffffffffffffffffffffffffffffffffffff1681526020019081526020016000208381548110610a6057610a5f613254565b5b906000526020600020906006020160000154815260200190815260200160002060003373ffffffffffffffffffffffffffffffffffffffff1673ffffffffffffffffffffffffffffffffffffffff16815260200190815260200160002060009054906101000a900460ff16610b0a576040517f08c379a0000000000000000000000000000000000000000000000000000000008152600401610b019061339b565b60405180910390fd5b6000600360008473ffffffffffffffffffffffffffffffffffffffff1673ffffffffffffffffffffffffffffffffffffffff1681526020019081526020016000208281548110610b5d57610b5c613254565b5b90600052602060002090600602016004015411610baf576040517f08c379a0000000000000000000000000000000000000000000000000000000008152600401610ba690613407565b60405180910390fd5b600360008373ffffffffffffffffffffffffffffffffffffffff1673ffffffffffffffffffffffffffffffffffffffff1681526020019081526020016000208181548110610c0057610bff613254565b5b90600052602060002090600602016004016000815480929190610c2290613456565b919050555060006004600083815260200190815260200160002060003373ffffffffffffffffffffffffffffffffffffffff1673ffffffffffffffffffffffffffffffffffffffff16815260200190815260200160002060006101000a81548160ff0219169083151502179055507f762c2616349603ac16eba0de8e6141b79129a07ab63bd99e0a80b3a471716943338383600360008773ffffffffffffffffffffffffffffffffffffffff1673ffffffffffffffffffffffffffffffffffffffff1681526020019081526020016000208581548110610d0557610d04613254565b5b906000526020600020906006020160040154604051610d27949392919061347f565b60405180910390a15050565b610d3b61280f565b8061ffff1660018190555050565b600260009054906101000a900473ffffffffffffffffffffffffffffffffffffffff1673ffffffffffffffffffffffffffffffffffffffff16630f53a470336040518263ffffffff1660e01b8152600401610da49190612fa7565b600060405180830381865afa158015610dc1573d6000803e3d6000fd5b505050506040513d6000823e3d601f19601f82011682018060405250810190610dea919061319f565b6000015173ffffffffffffffffffffffffffffffffffffffff163373ffffffffffffffffffffffffffffffffffffffff1614610e5b576040517f08c379a0000000000000000000000000000000000000000000000000000000008152600401610e5290613234565b60405180910390fd5b80600360008473ffffffffffffffffffffffffffffffffffffffff1673ffffffffffffffffffffffffffffffffffffffff1681526020019081526020016000208281548110610ead57610eac613254565b5b90600052602060002090600602016000015414610eff576040517f08c379a0000000000000000000000000000000000000000000000000000000008152600401610ef69061332f565b60405180910390fd5b60046000600360008573ffffffffffffffffffffffffffffffffffffffff1673ffffffffffffffffffffffffffffffffffffffff1681526020019081526020016000208381548110610f5457610f53613254565b5b906000526020600020906006020160000154815260200190815260200160002060003373ffffffffffffffffffffffffffffffffffffffff1673ffffffffffffffffffffffffffffffffffffffff16815260200190815260200160002060009054906101000a900460ff1615610fff576040517f08c379a0000000000000000000000000000000000000000000000000000000008152600401610ff690613510565b60405180910390fd5b600360008373ffffffffffffffffffffffffffffffffffffffff1673ffffffffffffffffffffffffffffffffffffffff16815260200190815260200160002081815481106110505761104f613254565b5b9060005260206000209060060201600401600081548092919061107290613530565b919050555060016004600083815260200190815260200160002060003373ffffffffffffffffffffffffffffffffffffffff1673ffffffffffffffffffffffffffffffffffffffff16815260200190815260200160002060006101000a81548160ff0219169083151502179055506001151560056000600360008673ffffffffffffffffffffffffffffffffffffffff1673ffffffffffffffffffffffffffffffffffffffff168152602001908152602001600020848154811061113957611138613254565b5b906000526020600020906006020160000154815260200190815260200160002060003373ffffffffffffffffffffffffffffffffffffffff1673ffffffffffffffffffffffffffffffffffffffff16815260200190815260200160002060009054906101000a900460ff161515036112ef57600360008373ffffffffffffffffffffffffffffffffffffffff1673ffffffffffffffffffffffffffffffffffffffff16815260200190815260200160002081815481106111fc576111fb613254565b5b9060005260206000209060060201600501600081548092919061121e90613456565b9190505550600060056000600360008673ffffffffffffffffffffffffffffffffffffffff1673ffffffffffffffffffffffffffffffffffffffff168152602001908152602001600020848154811061127a57611279613254565b5b906000526020600020906006020160000154815260200190815260200160002060003373ffffffffffffffffffffffffffffffffffffffff1673ffffffffffffffffffffffffffffffffffffffff16815260200190815260200160002060006101000a81548160ff0219169083151502179055505b7fe8a76fc0f16d11a00d1e93b689b63d76cf60af914dd3d915375dc41d01a0c3c8338383600360008773ffffffffffffffffffffffffffffffffffffffff1673ffffffffffffffffffffffffffffffffffffffff168152602001908152602001600020858154811061136457611363613254565b5b906000526020600020906006020160040154604051611386949392919061347f565b60405180910390a15050565b6000600260009054906101000a900473ffffffffffffffffffffffffffffffffffffffff1673ffffffffffffffffffffffffffffffffffffffff16630f53a470336040518263ffffffff1660e01b81526004016113ef9190612fa7565b600060405180830381865afa15801561140c573d6000803e3d6000fd5b505050506040513d6000823e3d601f19601f82011682018060405250810190611435919061319f565b6000015173ffffffffffffffffffffffffffffffffffffffff163373ffffffffffffffffffffffffffffffffffffffff16146114a6576040517f08c379a000000000000000000000000000000000000000000000000000000000815260040161149d90613234565b60405180910390fd5b600080600090505b600360008573ffffffffffffffffffffffffffffffffffffffff1673ffffffffffffffffffffffffffffffffffffffff1681526020019081526020016000208054905081101561157b57600360008573ffffffffffffffffffffffffffffffffffffffff1673ffffffffffffffffffffffffffffffffffffffff168152602001908152602001600020818154811061154957611548613254565b5b906000526020600020906006020160050154826115669190613578565b9150808061157390613530565b9150506114ae565b5080915050919050565b60015481565b61159361280f565b61159d6000612896565b565b600260009054906101000a900473ffffffffffffffffffffffffffffffffffffffff1673ffffffffffffffffffffffffffffffffffffffff16630f53a470336040518263ffffffff1660e01b81526004016115fa9190612fa7565b600060405180830381865afa158015611617573d6000803e3d6000fd5b505050506040513d6000823e3d601f19601f82011682018060405250810190611640919061319f565b6000015173ffffffffffffffffffffffffffffffffffffffff163373ffffffffffffffffffffffffffffffffffffffff16146116b1576040517f08c379a00000000000000000000000000000000000000000000000000000000081526004016116a890613234565b60405180910390fd5b60008151116116f5576040517f08c379a00000000000000000000000000000000000000000000000000000000081526004016116ec906135f8565b60405180910390fd5b6001548151111561173b576040517f08c379a000000000000000000000000000000000000000000000000000000000815260040161173290613664565b60405180910390fd5b60006040518060c00160405280600360003373ffffffffffffffffffffffffffffffffffffffff1673ffffffffffffffffffffffffffffffffffffffff1681526020019081526020016000208054905081526020013373ffffffffffffffffffffffffffffffffffffffff1681526020018381526020014281526020016000815260200160008152509050600360003373ffffffffffffffffffffffffffffffffffffffff1673ffffffffffffffffffffffffffffffffffffffff1681526020019081526020016000208190806001815401808255809150506001900390600052602060002090600602016000909190919091506000820151816000015560208201518160010160006101000a81548173ffffffffffffffffffffffffffffffffffffffff021916908373ffffffffffffffffffffffffffffffffffffffff16021790555060408201518160020190816118959190613830565b50606082015181600301556080820151816004015560a0820151816005015550507f16fd3c13e9d46923e0a8bce11c7b473ec508a72e6c96cd2404b29ce972afc29e6001600360003373ffffffffffffffffffffffffffffffffffffffff1673ffffffffffffffffffffffffffffffffffffffff168152602001908152602001600020805490506119269190613902565b3384426040516119399493929190613936565b60405180910390a15050565b6000600260009054906101000a900473ffffffffffffffffffffffffffffffffffffffff1673ffffffffffffffffffffffffffffffffffffffff16630f53a470336040518263ffffffff1660e01b81526004016119a29190612fa7565b600060405180830381865afa1580156119bf573d6000803e3d6000fd5b505050506040513d6000823e3d601f19601f820116820180604052508101906119e8919061319f565b6000015173ffffffffffffffffffffffffffffffffffffffff163373ffffffffffffffffffffffffffffffffffffffff1614611a59576040517f08c379a0000000000000000000000000000000000000000000000000000000008152600401611a5090613234565b60405180910390fd5b600080600090505b600360008573ffffffffffffffffffffffffffffffffffffffff1673ffffffffffffffffffffffffffffffffffffffff16815260200190815260200160002080549050811015611b2e57600360008573ffffffffffffffffffffffffffffffffffffffff1673ffffffffffffffffffffffffffffffffffffffff1681526020019081526020016000208181548110611afc57611afb613254565b5b90600052602060002090600602016004015482611b199190613578565b91508080611b2690613530565b915050611a61565b5080915050919050565b60008060009054906101000a900473ffffffffffffffffffffffffffffffffffffffff16905090565b600260009054906101000a900473ffffffffffffffffffffffffffffffffffffffff1673ffffffffffffffffffffffffffffffffffffffff16630f53a470336040518263ffffffff1660e01b8152600401611bbc9190612fa7565b600060405180830381865afa158015611bd9573d6000803e3d6000fd5b505050506040513d6000823e3d601f19601f82011682018060405250810190611c02919061319f565b6000015173ffffffffffffffffffffffffffffffffffffffff163373ffffffffffffffffffffffffffffffffffffffff1614611c73576040517f08c379a0000000000000000000000000000000000000000000000000000000008152600401611c6a90613234565b60405180910390fd5b80600360008473ffffffffffffffffffffffffffffffffffffffff1673ffffffffffffffffffffffffffffffffffffffff1681526020019081526020016000208281548110611cc557611cc4613254565b5b90600052602060002090600602016000015414611d17576040517f08c379a0000000000000000000000000000000000000000000000000000000008152600401611d0e9061332f565b60405180910390fd5b60056000600360008573ffffffffffffffffffffffffffffffffffffffff1673ffffffffffffffffffffffffffffffffffffffff1681526020019081526020016000208381548110611d6c57611d6b613254565b5b906000526020600020906006020160000154815260200190815260200160002060003373ffffffffffffffffffffffffffffffffffffffff1673ffffffffffffffffffffffffffffffffffffffff16815260200190815260200160002060009054906101000a900460ff16611e16576040517f08c379a0000000000000000000000000000000000000000000000000000000008152600401611e0d906139ce565b60405180910390fd5b6000600360008473ffffffffffffffffffffffffffffffffffffffff1673ffffffffffffffffffffffffffffffffffffffff1681526020019081526020016000208281548110611e6957611e68613254565b5b90600052602060002090600602016005015411611ebb576040517f08c379a0000000000000000000000000000000000000000000000000000000008152600401611eb290613a3a565b60405180910390fd5b600360008373ffffffffffffffffffffffffffffffffffffffff1673ffffffffffffffffffffffffffffffffffffffff1681526020019081526020016000208181548110611f0c57611f0b613254565b5b90600052602060002090600602016005016000815480929190611f2e90613456565b919050555060006005600083815260200190815260200160002060003373ffffffffffffffffffffffffffffffffffffffff1673ffffffffffffffffffffffffffffffffffffffff16815260200190815260200160002060006101000a81548160ff0219169083151502179055507f4a54f30e2b00426ad84130d34dc6b70e6ab64e12959dff773bb997347e99fd23338383600360008773ffffffffffffffffffffffffffffffffffffffff1673ffffffffffffffffffffffffffffffffffffffff168152602001908152602001600020858154811061201157612010613254565b5b906000526020600020906006020160050154604051612033949392919061347f565b60405180910390a15050565b600260009054906101000a900473ffffffffffffffffffffffffffffffffffffffff1673ffffffffffffffffffffffffffffffffffffffff16630f53a470336040518263ffffffff1660e01b815260040161209a9190612fa7565b600060405180830381865afa1580156120b7573d6000803e3d6000fd5b505050506040513d6000823e3d601f19601f820116820180604052508101906120e0919061319f565b6000015173ffffffffffffffffffffffffffffffffffffffff163373ffffffffffffffffffffffffffffffffffffffff1614612151576040517f08c379a000000000000000000000000000000000000000000000000000000000815260040161214890613234565b60405180910390fd5b80600360008473ffffffffffffffffffffffffffffffffffffffff1673ffffffffffffffffffffffffffffffffffffffff16815260200190815260200160002082815481106121a3576121a2613254565b5b906000526020600020906006020160000154146121f5576040517f08c379a00000000000000000000000000000000000000000000000000000000081526004016121ec9061332f565b60405180910390fd5b60056000600360008573ffffffffffffffffffffffffffffffffffffffff1673ffffffffffffffffffffffffffffffffffffffff168152602001908152602001600020838154811061224a57612249613254565b5b906000526020600020906006020160000154815260200190815260200160002060003373ffffffffffffffffffffffffffffffffffffffff1673ffffffffffffffffffffffffffffffffffffffff16815260200190815260200160002060009054906101000a900460ff16156122f5576040517f08c379a00000000000000000000000000000000000000000000000000000000081526004016122ec90613acc565b60405180910390fd5b600360008373ffffffffffffffffffffffffffffffffffffffff1673ffffffffffffffffffffffffffffffffffffffff168152602001908152602001600020818154811061234657612345613254565b5b9060005260206000209060060201600501600081548092919061236890613530565b919050555060016005600083815260200190815260200160002060003373ffffffffffffffffffffffffffffffffffffffff1673ffffffffffffffffffffffffffffffffffffffff16815260200190815260200160002060006101000a81548160ff0219169083151502179055506001151560046000600360008673ffffffffffffffffffffffffffffffffffffffff1673ffffffffffffffffffffffffffffffffffffffff168152602001908152602001600020848154811061242f5761242e613254565b5b906000526020600020906006020160000154815260200190815260200160002060003373ffffffffffffffffffffffffffffffffffffffff1673ffffffffffffffffffffffffffffffffffffffff16815260200190815260200160002060009054906101000a900460ff161515036125e557600360008373ffffffffffffffffffffffffffffffffffffffff1673ffffffffffffffffffffffffffffffffffffffff16815260200190815260200160002081815481106124f2576124f1613254565b5b9060005260206000209060060201600401600081548092919061251490613456565b9190505550600060046000600360008673ffffffffffffffffffffffffffffffffffffffff1673ffffffffffffffffffffffffffffffffffffffff16815260200190815260200160002084815481106125705761256f613254565b5b906000526020600020906006020160000154815260200190815260200160002060003373ffffffffffffffffffffffffffffffffffffffff1673ffffffffffffffffffffffffffffffffffffffff16815260200190815260200160002060006101000a81548160ff0219169083151502179055505b7fd0d4999471ec2d64ef3082b701ea632e73cf03302f43274ab6d09a2b11cb1ae6338383600360008773ffffffffffffffffffffffffffffffffffffffff1673ffffffffffffffffffffffffffffffffffffffff168152602001908152602001600020858154811061265a57612659613254565b5b90600052602060002090600602016005015460405161267c949392919061347f565b60405180910390a15050565b600360205281600052604060002081815481106126a457600080fd5b9060005260206000209060060201600091509150508060000154908060010160009054906101000a900473ffffffffffffffffffffffffffffffffffffffff16908060020180546126f4906132b2565b80601f0160208091040260200160405190810160405280929190818152602001828054612720906132b2565b801561276d5780601f106127425761010080835404028352916020019161276d565b820191906000526020600020905b81548152906001019060200180831161275057829003601f168201915b5050505050908060030154908060040154908060050154905086565b61279161280f565b600073ffffffffffffffffffffffffffffffffffffffff168173ffffffffffffffffffffffffffffffffffffffff16036128035760006040517f1e4fbdf70000000000000000000000000000000000000000000000000000000081526004016127fa9190612fa7565b60405180910390fd5b61280c81612896565b50565b61281761295a565b73ffffffffffffffffffffffffffffffffffffffff16612835611b38565b73ffffffffffffffffffffffffffffffffffffffff16146128945761285861295a565b6040517f118cdaa700000000000000000000000000000000000000000000000000000000815260040161288b9190612fa7565b60405180910390fd5b565b60008060009054906101000a900473ffffffffffffffffffffffffffffffffffffffff169050816000806101000a81548173ffffffffffffffffffffffffffffffffffffffff021916908373ffffffffffffffffffffffffffffffffffffffff1602179055508173ffffffffffffffffffffffffffffffffffffffff168173ffffffffffffffffffffffffffffffffffffffff167f8be0079c531659141344cd1fd0a4f28419497f9722a3daafe3b4186f6b6457e060405160405180910390a35050565b600033905090565b6040518060c0016040528060008152602001600073ffffffffffffffffffffffffffffffffffffffff168152602001606081526020016000815260200160008152602001600081525090565b6000604051905090565b600080fd5b600080fd5b600073ffffffffffffffffffffffffffffffffffffffff82169050919050565b60006129ed826129c2565b9050919050565b6129fd816129e2565b8114612a0857600080fd5b50565b600081359050612a1a816129f4565b92915050565b6000819050919050565b612a3381612a20565b8114612a3e57600080fd5b50565b600081359050612a5081612a2a565b92915050565b60008060408385031215612a6d57612a6c6129b8565b5b6000612a7b85828601612a0b565b9250506020612a8c85828601612a41565b9150509250929050565b612a9f81612a20565b82525050565b612aae816129e2565b82525050565b600081519050919050565b600082825260208201905092915050565b60005b83811015612aee578082015181840152602081019050612ad3565b60008484015250505050565b6000601f19601f8301169050919050565b6000612b1682612ab4565b612b208185612abf565b9350612b30818560208601612ad0565b612b3981612afa565b840191505092915050565b600060c083016000830151612b5c6000860182612a96565b506020830151612b6f6020860182612aa5565b5060408301518482036040860152612b878282612b0b565b9150506060830151612b9c6060860182612a96565b506080830151612baf6080860182612a96565b5060a0830151612bc260a0860182612a96565b508091505092915050565b60006020820190508181036000830152612be78184612b44565b905092915050565b600060208284031215612c0557612c046129b8565b5b6000612c1384828501612a0b565b91505092915050565b600081519050919050565b600082825260208201905092915050565b6000819050602082019050919050565b600060c083016000830151612c606000860182612a96565b506020830151612c736020860182612aa5565b5060408301518482036040860152612c8b8282612b0b565b9150506060830151612ca06060860182612a96565b506080830151612cb36080860182612a96565b5060a0830151612cc660a0860182612a96565b508091505092915050565b6000612cdd8383612c48565b905092915050565b6000602082019050919050565b6000612cfd82612c1c565b612d078185612c27565b935083602082028501612d1985612c38565b8060005b85811015612d555784840389528151612d368582612cd1565b9450612d4183612ce5565b925060208a01995050600181019050612d1d565b50829750879550505050505092915050565b60006020820190508181036000830152612d818184612cf2565b905092915050565b600061ffff82169050919050565b612da081612d89565b8114612dab57600080fd5b50565b600081359050612dbd81612d97565b92915050565b600060208284031215612dd957612dd86129b8565b5b6000612de784828501612dae565b91505092915050565b612df981612a20565b82525050565b6000602082019050612e146000830184612df0565b92915050565b600080fd5b600080fd5b7f4e487b7100000000000000000000000000000000000000000000000000000000600052604160045260246000fd5b612e5c82612afa565b810181811067ffffffffffffffff82111715612e7b57612e7a612e24565b5b80604052505050565b6000612e8e6129ae565b9050612e9a8282612e53565b919050565b600067ffffffffffffffff821115612eba57612eb9612e24565b5b612ec382612afa565b9050602081019050919050565b82818337600083830152505050565b6000612ef2612eed84612e9f565b612e84565b905082815260208101848484011115612f0e57612f0d612e1f565b5b612f19848285612ed0565b509392505050565b600082601f830112612f3657612f35612e1a565b5b8135612f46848260208601612edf565b91505092915050565b600060208284031215612f6557612f646129b8565b5b600082013567ffffffffffffffff811115612f8357612f826129bd565b5b612f8f84828501612f21565b91505092915050565b612fa1816129e2565b82525050565b6000602082019050612fbc6000830184612f98565b92915050565b600082825260208201905092915050565b6000612fde82612ab4565b612fe88185612fc2565b9350612ff8818560208601612ad0565b61300181612afa565b840191505092915050565b600060c0820190506130216000830189612df0565b61302e6020830188612f98565b81810360408301526130408187612fd3565b905061304f6060830186612df0565b61305c6080830185612df0565b61306960a0830184612df0565b979650505050505050565b600080fd5b600080fd5b60008151905061308d816129f4565b92915050565b60006130a66130a184612e9f565b612e84565b9050828152602081018484840111156130c2576130c1612e1f565b5b6130cd848285612ad0565b509392505050565b600082601f8301126130ea576130e9612e1a565b5b81516130fa848260208601613093565b91505092915050565b60006060828403121561311957613118613074565b5b6131236060612e84565b905060006131338482850161307e565b600083015250602082015167ffffffffffffffff81111561315757613156613079565b5b613163848285016130d5565b602083015250604082015167ffffffffffffffff81111561318757613186613079565b5b613193848285016130d5565b60408301525092915050565b6000602082840312156131b5576131b46129b8565b5b600082015167ffffffffffffffff8111156131d3576131d26129bd565b5b6131df84828501613103565b91505092915050565b7f55736572206973206e6f74207265676973746572656400000000000000000000600082015250565b600061321e601683612fc2565b9150613229826131e8565b602082019050919050565b6000602082019050818103600083015261324d81613211565b9050919050565b7f4e487b7100000000000000000000000000000000000000000000000000000000600052603260045260246000fd5b7f4e487b7100000000000000000000000000000000000000000000000000000000600052602260045260246000fd5b600060028204905060018216806132ca57607f821691505b6020821081036132dd576132dc613283565b5b50919050565b7f547765657420646f65736e277420657869737400000000000000000000000000600082015250565b6000613319601383612fc2565b9150613324826132e3565b602082019050919050565b600060208201905081810360008301526133488161330c565b9050919050565b7f5477656574206e6f74206c696b65642062792074686973207573657200000000600082015250565b6000613385601c83612fc2565b91506133908261334f565b602082019050919050565b600060208201905081810360008301526133b481613378565b9050919050565b7f5477656574206861732030206c696b6573000000000000000000000000000000600082015250565b60006133f1601183612fc2565b91506133fc826133bb565b602082019050919050565b60006020820190508181036000830152613420816133e4565b9050919050565b7f4e487b7100000000000000000000000000000000000000000000000000000000600052601160045260246000fd5b600061346182612a20565b91506000820361347457613473613427565b5b600182039050919050565b60006080820190506134946000830187612f98565b6134a16020830186612f98565b6134ae6040830185612df0565b6134bb6060830184612df0565b95945050505050565b7f547765657420616c7265616479206c696b656420627920746869732075736572600082015250565b60006134fa602083612fc2565b9150613505826134c4565b602082019050919050565b60006020820190508181036000830152613529816134ed565b9050919050565b600061353b82612a20565b91507fffffffffffffffffffffffffffffffffffffffffffffffffffffffffffffffff820361356d5761356c613427565b5b600182019050919050565b600061358382612a20565b915061358e83612a20565b92508282019050808211156135a6576135a5613427565b5b92915050565b7f496e76616c696420747765657400000000000000000000000000000000000000600082015250565b60006135e2600d83612fc2565b91506135ed826135ac565b602082019050919050565b60006020820190508181036000830152613611816135d5565b9050919050565b7f547765657420697320746f6f206c6f6e67000000000000000000000000000000600082015250565b600061364e601183612fc2565b915061365982613618565b602082019050919050565b6000602082019050818103600083015261367d81613641565b9050919050565b60008190508160005260206000209050919050565b60006020601f8301049050919050565b600082821b905092915050565b6000600883026136e67fffffffffffffffffffffffffffffffffffffffffffffffffffffffffffffffff826136a9565b6136f086836136a9565b95508019841693508086168417925050509392505050565b6000819050919050565b600061372d61372861372384612a20565b613708565b612a20565b9050919050565b6000819050919050565b61374783613712565b61375b61375382613734565b8484546136b6565b825550505050565b600090565b613770613763565b61377b81848461373e565b505050565b5b8181101561379f57613794600082613768565b600181019050613781565b5050565b601f8211156137e4576137b581613684565b6137be84613699565b810160208510156137cd578190505b6137e16137d985613699565b830182613780565b50505b505050565b600082821c905092915050565b6000613807600019846008026137e9565b1980831691505092915050565b600061382083836137f6565b9150826002028217905092915050565b61383982612ab4565b67ffffffffffffffff81111561385257613851612e24565b5b61385c82546132b2565b6138678282856137a3565b600060209050601f83116001811461389a5760008415613888578287015190505b6138928582613814565b8655506138fa565b601f1984166138a886613684565b60005b828110156138d0578489015182556001820191506020850194506020810190506138ab565b868310156138ed57848901516138e9601f8916826137f6565b8355505b6001600288020188555050505b505050505050565b600061390d82612a20565b915061391883612a20565b92508282039050818111156139305761392f613427565b5b92915050565b600060808201905061394b6000830187612df0565b6139586020830186612f98565b818103604083015261396a8185612fd3565b90506139796060830184612df0565b95945050505050565b7f5477656574206e6f74206469736c696b65642062792074686973207573657200600082015250565b60006139b8601f83612fc2565b91506139c382613982565b602082019050919050565b600060208201905081810360008301526139e7816139ab565b9050919050565b7f5477656574206861732030206469736c696b6573000000000000000000000000600082015250565b6000613a24601483612fc2565b9150613a2f826139ee565b602082019050919050565b60006020820190508181036000830152613a5381613a17565b9050919050565b7f547765657420616c7265616479206469736c696b65642062792074686973207560008201527f7365720000000000000000000000000000000000000000000000000000000000602082015250565b6000613ab6602383612fc2565b9150613ac182613a5a565b604082019050919050565b60006020820190508181036000830152613ae581613aa9565b905091905056fea26469706673582212200d97858032dfbbbe81b96dcf7f7cf88a89035fa302159e83c3efd4acca87edb864736f6c63430008130033",
  "immutableReferences": {},
  "source": "// SPDX-License-Identifier: MIT\r\npragma solidity ^0.8.19;\r\n\r\nimport \"@openzeppelin/contracts/access/Ownable.sol\";\r\ninterface UserContract {\r\n    struct UserProfile {\r\n        address userAddress;\r\n        string displayName;\r\n        string bio;\r\n    }\r\n    function setProfile(string memory _displayName, string memory _bio) external ;\r\n    function getProfile(address _user) external  view returns (UserProfile memory) ;\r\n    function changeBio(string memory _newBio)external;\r\n}\r\n\r\ncontract Twitter is Ownable {\r\n\r\n    uint public MAX_TWEET_LENGTH = 300;\r\n    UserContract userContract;\r\n    // address userContractKey=0x9da9df2Fe440fA9E05B620a05990d7c644aCBBB8;\r\n    struct Tweet {\r\n        uint id;\r\n        address author;\r\n        string content;\r\n        uint timestamp;\r\n        uint likes;\r\n        uint dislikes;\r\n    }\r\n\r\n    constructor( address userContractKey) Ownable(msg.sender) {\r\n    userContract=UserContract(userContractKey);\r\n    }\r\n\r\n    modifier onlyRegistered(){\r\n        require(msg.sender==userContract.getProfile(msg.sender).userAddress, \"User is not registered\");\r\n        _;\r\n    }\r\n\r\n    event TweetCreated(uint id, address author, string content, uint timestamp);\r\n    event TweetLiked(address liker, address author, uint tweetId, uint newLikeCount);\r\n    event TweetUnliked(address unliker, address author, uint tweetId, uint newLikeCount);\r\n    event TweetDisliked(address disliker, address author, uint tweetId, uint newDislikeCount);\r\n    event TweetNotDisliked(address notDisliker, address author, uint tweetId, uint newDislikeCount);\r\n\r\n    function changeTweetLength(uint16 newTweetLength) public onlyOwner {\r\n        MAX_TWEET_LENGTH = newTweetLength;\r\n    }\r\n\r\n    mapping(address => Tweet[]) public usernameMapping;\r\n    mapping(uint => mapping(address => bool)) private likedTweets;\r\n    mapping(uint => mapping(address => bool)) private dislikedTweets;\r\n\r\n    function createTweet(string memory _tweet) public onlyRegistered {\r\n        require(bytes(_tweet).length > 0, \"Invalid tweet\");\r\n        require(bytes(_tweet).length <= MAX_TWEET_LENGTH, \"Tweet is too long\");\r\n        Tweet memory newTweet = Tweet(\r\n            usernameMapping[msg.sender].length,\r\n            msg.sender,\r\n            _tweet,\r\n            block.timestamp,\r\n            0,\r\n            0\r\n        );\r\n        usernameMapping[msg.sender].push(newTweet);\r\n        emit TweetCreated(usernameMapping[msg.sender].length - 1, msg.sender, _tweet, block.timestamp);\r\n    }\r\n\r\n    function getTweet(address _user, uint i) public view onlyRegistered returns (Tweet memory) {\r\n        return usernameMapping[_user][i];\r\n    }\r\n\r\n    function getAllTweets(address _user) public view  onlyRegistered returns (Tweet[] memory) {\r\n        return usernameMapping[_user];\r\n    }\r\n\r\n    function likeTweet(address author, uint id) external onlyRegistered {\r\n        require(usernameMapping[author][id].id == id, \"Tweet doesn't exist\");\r\n        require(!likedTweets[usernameMapping[author][id].id][msg.sender], \"Tweet already liked by this user\");\r\n        usernameMapping[author][id].likes++;\r\n        likedTweets[id][msg.sender] = true;\r\n        if(dislikedTweets[usernameMapping[author][id].id][msg.sender] == true){\r\n            usernameMapping[author][id].dislikes--;\r\n            dislikedTweets[usernameMapping[author][id].id][msg.sender] = false;\r\n        }\r\n        emit TweetLiked(msg.sender, author, id, usernameMapping[author][id].likes);\r\n    }\r\n\r\n    function unlikeTweet(address author, uint id) external onlyRegistered {\r\n        require(usernameMapping[author][id].id == id, \"Tweet doesn't exist\");\r\n        require(likedTweets[usernameMapping[author][id].id][msg.sender], \"Tweet not liked by this user\");\r\n        require(usernameMapping[author][id].likes > 0, \"Tweet has 0 likes\");\r\n        usernameMapping[author][id].likes--;\r\n        likedTweets[id][msg.sender] = false;\r\n        emit TweetUnliked(msg.sender, author, id, usernameMapping[author][id].likes);\r\n    }\r\n\r\n    function dislikeTweet(address author, uint id) external onlyRegistered {\r\n        require(usernameMapping[author][id].id == id, \"Tweet doesn't exist\");\r\n        require(!dislikedTweets[usernameMapping[author][id].id][msg.sender], \"Tweet already disliked by this user\");\r\n        usernameMapping[author][id].dislikes++;\r\n        dislikedTweets[id][msg.sender] = true;\r\n        if(likedTweets[usernameMapping[author][id].id][msg.sender] == true){\r\n            usernameMapping[author][id].likes--;\r\n            likedTweets[usernameMapping[author][id].id][msg.sender] = false;\r\n        }\r\n        emit TweetDisliked(msg.sender, author, id, usernameMapping[author][id].dislikes);\r\n    }\r\n\r\n    function notDislikeTweet(address author, uint id) external onlyRegistered {\r\n        require(usernameMapping[author][id].id == id, \"Tweet doesn't exist\");\r\n        require(dislikedTweets[usernameMapping[author][id].id][msg.sender], \"Tweet not disliked by this user\");\r\n        require(usernameMapping[author][id].dislikes > 0, \"Tweet has 0 dislikes\");\r\n        usernameMapping[author][id].dislikes--;\r\n        dislikedTweets[id][msg.sender] = false;\r\n        emit TweetNotDisliked(msg.sender, author, id, usernameMapping[author][id].dislikes);\r\n    }\r\n\r\n    function getTotalLikes(address _author) external  view onlyRegistered  returns (uint) {\r\n        uint totalLikes;\r\n        for (uint i = 0; i < usernameMapping[_author].length; i++) {\r\n            totalLikes += usernameMapping[_author][i].likes;\r\n        }\r\n        return totalLikes;\r\n    }\r\n\r\n    function getTotalDislikes(address _author) external view onlyRegistered returns (uint) {\r\n        uint totalDislikes;\r\n        for (uint i = 0; i < usernameMapping[_author].length; i++) {\r\n            totalDislikes += usernameMapping[_author][i].dislikes;\r\n        }\r\n        return totalDislikes;\r\n    }\r\n}\r\n",
  "sourcePath": "D:\\Blockchain\\Truffle\\Twitter project\\contracts\\Twitter.sol",
  "compiler": {
    "name": "solc",
    "version": "0.8.19+commit.7dd6d404.Emscripten.clang"
  },
  "schemaVersion": "3.4.16",
  "updatedAt": "2024-07-16T16:33:17.382Z",
  "networkType": "ethereum",
  "devdoc": {
    "errors": {
      "OwnableInvalidOwner(address)": [
        {
          "details": "The owner is not a valid owner account. (eg. `address(0)`)"
        }
      ],
      "OwnableUnauthorizedAccount(address)": [
        {
          "details": "The caller account is not authorized to perform an operation."
        }
      ]
    },
    "kind": "dev",
    "methods": {
      "owner()": {
        "details": "Returns the address of the current owner."
      },
      "renounceOwnership()": {
        "details": "Leaves the contract without owner. It will not be possible to call `onlyOwner` functions. Can only be called by the current owner. NOTE: Renouncing ownership will leave the contract without an owner, thereby disabling any functionality that is only available to the owner."
      },
      "transferOwnership(address)": {
        "details": "Transfers ownership of the contract to a new account (`newOwner`). Can only be called by the current owner."
      }
    },
    "version": 1
  },
  "userdoc": {
    "kind": "user",
    "methods": {},
    "version": 1
  }
}